S00C0000546573742E7372656378
S11300000C942A000C9447000C9447000C9447006D
S11300100C9447000C9447000C9447000C94470040
S11300200C9447000C9447000C9447000C94470030
S11300300C9447000C9447000C9447000C94470020
S11300400C9447000C9447000C9447000C94470010
S11300500C94470011241FBECFE5D8E0DEBFCDBF0E
S113006010E0A0E6B0E0E6ECF3E002C005900D92EB
S1130070A037B107D9F720E0A0E7B0E001C01D9296
S1130080A237B207E1F70E94BC010C94E1010C9481
S113009000008032B0F5E82FE695E695E695877086
S11300A06130B1F4F0E0EE0FFF1FE859FF4F01900B
S11300B0F081E02D408121E030E0B90102C0660FFB
S11300C0771F8A95E2F7CB01842B808380E0089523
S11300D0611119C0F0E0EE0FFF1FE859FF4F0190C6
S11300E0F081E02D408121E030E0B90102C0660FCB
S11300F0771F8A95E2F7CB0180958423808380E083
S1130100089582E0089581E008958032B0F5E82FE3
S1130110E695E695E69587706130B1F4F0E0EE0F70
S1130120FF1FE05AFF4F0190F081E02D408121E054
S113013030E0B90102C0660F771F8A95E2F7CB0160
S1130140842B808380E00895611119C0F0E0EE0FE4
S1130150FF1FE05AFF4F0190F081E02D408121E024
S113016030E0B90102C0660F771F8A95E2F7CB0130
S113017080958423808380E0089582E0089583E05D
S11301800895CF9390917000992309F449C0C82F22
S113019060E088E00E94490060E089E00E94490034
S11301A06C2F617080E00E944900C1FB662760F9F2
S11301B081E00E944900C2FB662760F982E00E9448
S11301C04900C3FB662760F983E00E944900C4FB31
S11301D0662760F984E00E944900C5FB662760F940
S11301E085E00E944900C6FB662760F986E00E940C
S11301F049006C2F661F6627661F87E00E9449002E
S113020061E08AE00E9449008FE697E10197F1F7E7
S113021000C0000060E08AE00E94490080E001C064
S113022081E0CF91089581E08093700061E088E0DF
S11302300E94850061E089E00E94850061E08AE017
S11302400E94850061E080E00E94850061E081E019
S11302500E94850061E082E00E94850061E083E005
S11302600E94850061E084E00E94850061E085E0F1
S11302700E94850061E086E00E94850061E087E0DD
S11302800E9485002FEB84ED91E021508040904046
S1130290E1F700C000008CE30E94C1008FE697E103
S11302A00197F1F700C000008EE00E94C1008FE6C4
S11302B097E10197F1F700C0000081E00E94C100BE
S11302C08FE697E10197F1F700C000008CE380937B
S11302D071000895CF9390917000992309F449C057
S11302E0C82F60E089E00E94490061E088E00E9434
S11302F049006C2F617080E00E944900C1FB6627B1
S113030060F981E00E944900C2FB662760F982E03F
S11303100E944900C3FB662760F983E00E944900FC
S1130320C4FB662760F984E00E944900C5FB662788
S113033060F985E00E944900C6FB662760F986E003
S11303400E9449006C2F661F6627661F87E00E9483
S1130350490061E08AE00E9449008FE697E1019735
S1130360F1F700C0000060E08AE00E94490080E0EC
S113037001C081E0CF910895CF93DF931F92CDB751
S1130380DEB70E94130180E890E00E94C10087E676
S113039090E00E94D401CE0101960E94DB01898184
S11303A090E00E946A01F7CF90BD89B980E18AB9D3
S11303B08EE880BD08955F9BFECF2CB1FC012083A5
S10903C00895F894FFCF3C
S11303C63A003700340031003B0038003500320073
S9030000FC
