:100000000C942A000C9447000C9447000C94470071
:100010000C9447000C9447000C9447000C94470044
:100020000C9447000C9447000C9447000C94470232
:100030000C9447000C9447000C9447000C94470024
:100040000C9447000C9447000C9447000C94470014
:100050000C94470011241FBECFE5D8E0DEBFCDBF12
:1000600010E0A0E6B0E0ECE1F5E002C005900D92F2
:10007000A037B107D9F720E0A0E7B0E001C01D929A
:10008000A437B207E1F70E94E5010C948C020C94AE
:1000900000008032B0F5E82FE695E695E69587708A
:1000A0006130B1F4F0E0EE0FFF1FE859FF4F01900F
:1000B000F081E02D408121E030E0B90102C0660FFF
:1000C000771F8A95E2F7CB01842B808380E0089527
:1000D000611119C0F0E0EE0FFF1FE859FF4F0190CA
:1000E000F081E02D408121E030E0B90102C0660FCF
:1000F000771F8A95E2F7CB0180958423808380E087
:10010000089582E0089581E008958032B0F5E82FE7
:10011000E695E695E69587706130B1F4F0E0EE0F74
:10012000FF1FE05AFF4F0190F081E02D408121E058
:1001300030E0B90102C0660F771F8A95E2F7CB0164
:10014000842B808380E00895611119C0F0E0EE0FE8
:10015000FF1FE05AFF4F0190F081E02D408121E028
:1001600030E0B90102C0660F771F8A95E2F7CB0134
:1001700080958423808380E0089582E0089583E061
:100180000895DC0120E030E008C0FD01E20FF31F1C
:100190009081960F90832F5F3F4FFD0101900020CB
:1001A000E9F73197EA1BFB0B2E173F0770F3089511
:1001B000CF9390917000992309F449C0C82F60E053
:1001C00088E00E94490060E089E00E9449006C2FAD
:1001D000617080E00E944900C1FB662760F981E000
:1001E0000E944900C2FB662760F982E00E94490034
:1001F000C3FB662760F983E00E944900C4FB6627C1
:1002000060F984E00E944900C5FB662760F985E03B
:100210000E944900C6FB662760F986E00E944900FB
:100220006C2F661F6627661F87E00E94490061E009
:100230008AE00E9449008FE697E10197F1F700C03C
:10024000000060E08AE00E94490080E001C081E097
:10025000CF91089581E08093700061E088E00E9472
:10026000850061E089E00E94850061E08AE00E94EB
:10027000850061E080E00E94850061E081E00E94ED
:10028000850061E082E00E94850061E083E00E94D9
:10029000850061E084E00E94850061E085E00E94C5
:1002A000850061E086E00E94850061E087E00E94B1
:1002B00085002FEB84ED91E0215080409040E1F7E4
:1002C00000C000008CE30E94D8008FE697E1019700
:1002D000F1F700C000008EE00E94D8008FE697E1A1
:1002E0000197F1F700C0000081E00E94D8008FE67E
:1002F00097E10197F1F700C000008CE38093710053
:100300000895CF9390917000992309F449C0C82FA4
:1003100060E089E00E94490061E088E00E944900B5
:100320006C2F617080E00E944900C1FB662760F974
:1003300081E00E944900C2FB662760F982E00E94CA
:100340004900C3FB662760F983E00E944900C4FBB3
:10035000662760F984E00E944900C5FB662760F9C2
:1003600085E00E944900C6FB662760F986E00E948E
:1003700049006C2F661F6627661F87E00E944900B0
:1003800061E08AE00E9449008FE697E10197F1F76A
:1003900000C0000060E08AE00E94490080E001C0E7
:1003A00081E0CF91089583B7806483BF83B788606D
:1003B00083BF83B7806283BF83B7846083BF83B703
:1003C000816083BF08958CBF0895CF93DF931F9200
:1003D000CDB7DEB70E946B020E942A0180E890E050
:1003E0000E94D80087E690E00E947F02CE0101962D
:1003F0000E9486026DEE7AE0CE0101960E94C10055
:1004000089818233C1F018F4813331F0EFCF833327
:1004100009F1843371F1EACF90E00E9481010E94DA
:10042000D30184E60E94E30188B3886088BB87B368
:10043000886087BBDBCF90E00E9481010E94D301DE
:100440008FEA0E94E30188B3886088BB87B3886025
:1004500087BBCCCF90E00E9481010E94D3018FEF37
:100460000E94E30188B3886088BB87B3886087BB3C
:10047000BDCF90E00E94810188B3806188BB87B3C3
:10048000806187BB1092730010927200AFCF1F92F1
:100490000F920FB60F9211242F938F939F938091F9
:1004A0007200909173000196909373008093720094
:1004B00080917200909173008633914021F497B33C
:1004C00080E1892787BB9F918F912F910F900FBE5D
:1004D0000F901F901895789489B7816089BF83B772
:1004E000877F83BF83B78F7B83BF83B7816083BFE1
:1004F00083B78D7F83BF83B7846083BF089590BD2A
:1005000089B980E18AB98EE880BD08955F9BFECFEE
:0C0510002CB1FC0120830895F894FFCF6B
:10051C003A003700340031003B003800350032001F
:00000001FF
