:100000000C942A000C9447000C9447000C94470071
:100010000C9447000C9447000C9447000C94470044
:100020000C9447000C9447000C9447000C94470034
:100030000C9447000C9447000C9447000C94470024
:100040000C9447000C9447000C9447000C94470014
:100050000C94470011241FBECFE5D8E0DEBFCDBF12
:1000600010E0A0E6B0E0E0EDF6E002C005900D92F1
:10007000A039B107D9F720E0A0E9B0E001C01D9296
:10008000A239B207E1F70E94EA020C9466030C94CD
:1000900000008032B0F5E82FE695E695E69587708A
:1000A0006130B1F4F0E0EE0FFF1FE857FF4F019011
:1000B000F081E02D408121E030E0B90102C0660FFF
:1000C000771F8A95E2F7CB01842B808380E0089527
:1000D000611119C0F0E0EE0FFF1FE857FF4F0190CC
:1000E000F081E02D408121E030E0B90102C0660FCF
:1000F000771F8A95E2F7CB0180958423808380E087
:10010000089582E0089581E008958032D8F4E82FC0
:10011000E695E695E6958770F0E0EE0FFF1FE8584C
:10012000FF4F0190F081E02D208130E0A90102C055
:10013000559547958A95E2F7CA018170FB01808346
:1001400080E0089582E008958032B0F5E82FE695CA
:10015000E695E69587706130B1F4F0E0EE0FFF1F91
:10016000E058FF4F0190F081E02D408121E030E028
:10017000B90102C0660F771F8A95E2F7CB01842B85
:10018000808380E00895611119C0F0E0EE0FFF1F39
:10019000E058FF4F0190F081E02D408121E030E0F8
:1001A000B90102C0660F771F8A95E2F7CB018095EF
:1001B0008423808380E0089582E0089583E0089599
:1001C000DC0120E030E008C0FD01E20FF31F908168
:1001D000961B90832F5F3F4FFD0101900020E9F7B0
:1001E0003197EA1BFB0B2E173F0770F30895DC01D4
:1001F00020E030E008C0FD01E20FF31F9081960F70
:1002000090832F5F3F4FFD0101900020E9F7319768
:10021000EA1BFB0B2E173F0770F3089561E083E1A3
:100220000E94A40061E082E10E94A40061E081E1FB
:100230000E94A40061E080E10E94A40060E087E1E8
:100240000E94A40060E086E10E94A40060E085E1D5
:100250000E94A40060E084E10E94A40061E083E1C8
:100260000E94490061E082E10E94490061E081E171
:100270000E94490061E080E10E94490061E087E15D
:100280000E94490061E086E10E94490061E085E149
:100290000E94490061E084E10E9449000895BF92F4
:1002A000CF92DF92EF92FF920F931F93CF93DF9342
:1002B0001F92CDB7DEB7009709F472C06C0161E000
:1002C00083E10E94A40061E082E10E94A40061E059
:1002D00081E10E94A40061E080E10E94A40060E04E
:1002E00087E10E94A40060E086E10E94A40060E033
:1002F00085E10E94A40060E084E10E94A40061E026
:1003000083E10E94490061E082E10E94490061E0CE
:1003100081E10E94490061E080E10E944900B12C26
:1003200000E03AC0E02EF12CF701EC58FF4F60E0FE
:1003300080810E94490010E00EC0E12FF0E0E059FA
:10034000FF4FBE016F5F7F4F80810E9485009981C2
:10035000992321F01F5F143080F302C0BB24B394B3
:1003600081E0B8120EC0F701EE0FFF1FEE0FFF1F66
:10037000E05AFF4FE10FF11D8081F601808380E09C
:1003800010C086E4F6018083F701EC58FF4F61E06E
:1003900080810E9449000F5F043020F280E001C09C
:1003A00081E00F90DF91CF911F910F91FF90EF901F
:1003B000DF90CF90BF900895CF93909190009923B4
:1003C00009F449C0C82F60E088E00E94490060E05D
:1003D00089E00E9449006C2F617080E00E94490012
:1003E000C1FB662760F981E00E944900C2FB6627D5
:1003F00060F982E00E944900C3FB662760F983E050
:100400000E944900C4FB662760F984E00E9449000D
:10041000C5FB662760F985E00E944900C6FB662798
:1004200060F986E00E9449006C2F661F6627661FF0
:1004300087E00E94490061E08AE00E9449008FE65F
:1004400097E10197F1F700C0000060E08AE00E94A8
:10045000490080E001C081E0CF91089581E0809360
:10046000900061E088E00E94A40061E089E00E94C1
:10047000A40061E08AE00E94A40061E080E00E94A4
:10048000A40061E081E00E94A40061E082E00E949B
:10049000A40061E083E00E94A40061E084E00E9487
:1004A000A40061E085E00E94A40061E086E00E9473
:1004B000A40061E087E00E94A4002FEB84ED91E0AE
:1004C000215080409040E1F700C000008CE30E9482
:1004D000DC018FE697E10197F1F700C000008EE0A4
:1004E0000E94DC018FE697E10197F1F700C0000060
:1004F00081E00E94DC018FE697E10197F1F700C0EF
:1005000000008CE3809391000895CF939091900028
:10051000992309F449C0C82F60E089E00E9449008E
:1005200061E088E00E9449006C2F617080E00E94C9
:100530004900C1FB662760F981E00E944900C2FBC7
:10054000662760F982E00E944900C3FB662760F9D4
:1005500083E00E944900C4FB662760F984E00E94A2
:100560004900C5FB662760F985E00E944900C6FB8B
:10057000662760F986E00E9449006C2F661F662797
:10058000661F87E00E94490061E08AE00E944900FE
:100590008FE697E10197F1F700C0000060E08AE084
:1005A0000E94490080E001C081E0CF9108958091D0
:1005B0009000882369F060E088E00E94490081E0B3
:1005C0000E94DC018FE697E10197F1F700C000007F
:1005D00081E00895CF93DF9300D0CDB7DEB787E6F3
:1005E00090E00E945B030E942E020E940E0180E8B0
:1005F00090E00E94DC0100E010E005C000E010E0A7
:1006000002C001E010E0CE0102960E944F018A81F3
:100610008634A1F301151105B1F78230A9F018F461
:10062000813031F034C08330D9F0843029F12FC0CB
:1006300081E389836DEE7AE0CE0101960E94E000AD
:1006400089810E94620323C082E389836DEE7AE090
:10065000CE0101960E94E00089810E94620317C0CA
:1006600083E389836DEE7AE0CE0101960E94E0007B
:1006700089810E9462030BC084E389836DEE7AE076
:10068000CE0101960E94E00089810E9462036DEE16
:100690007AE0CE0101960E94F7008A8190E0C09630
:1006A0000E9485028A81833609F0ABCF0E94D7026F
:1006B00001E010E0A8CF90BD89B988E18AB98EE841
:1006C00080BD08955D9BFECF8CB90895F894FFCF4F
:1006D00063010407000205080D030609FBFDFAFF8C
:1006E000171615141312111039003600330030009C
:1006F0003A003700340031003B003800350032004A
:00000001FF
